{
  "contractName": "TestFactory",
  "abi": [
    {
      "constant": false,
      "inputs": [
        {
          "name": "_newOwner",
          "type": "address"
        }
      ],
      "name": "setOwner",
      "outputs": [],
      "payable": false,
      "stateMutability": "nonpayable",
      "type": "function"
    },
    {
      "constant": true,
      "inputs": [],
      "name": "owner",
      "outputs": [
        {
          "name": "",
          "type": "address"
        }
      ],
      "payable": false,
      "stateMutability": "view",
      "type": "function"
    },
    {
      "constant": false,
      "inputs": [
        {
          "name": "entity",
          "type": "address"
        }
      ],
      "name": "becomeFDA",
      "outputs": [],
      "payable": false,
      "stateMutability": "nonpayable",
      "type": "function"
    },
    {
      "constant": false,
      "inputs": [
        {
          "name": "entity",
          "type": "address"
        }
      ],
      "name": "becomeFactory",
      "outputs": [],
      "payable": false,
      "stateMutability": "nonpayable",
      "type": "function"
    },
    {
      "constant": false,
      "inputs": [
        {
          "name": "entity",
          "type": "address"
        }
      ],
      "name": "becomeHospital",
      "outputs": [],
      "payable": false,
      "stateMutability": "nonpayable",
      "type": "function"
    },
    {
      "constant": false,
      "inputs": [
        {
          "name": "entity",
          "type": "address"
        }
      ],
      "name": "becomeLab",
      "outputs": [],
      "payable": false,
      "stateMutability": "nonpayable",
      "type": "function"
    },
    {
      "constant": false,
      "inputs": [
        {
          "name": "entity",
          "type": "address"
        }
      ],
      "name": "certifyFactory",
      "outputs": [],
      "payable": false,
      "stateMutability": "nonpayable",
      "type": "function"
    },
    {
      "constant": false,
      "inputs": [
        {
          "name": "QR",
          "type": "string"
        }
      ],
      "name": "createTest",
      "outputs": [],
      "payable": false,
      "stateMutability": "nonpayable",
      "type": "function"
    },
    {
      "constant": false,
      "inputs": [
        {
          "name": "testId",
          "type": "uint256"
        }
      ],
      "name": "hospitalTransfer",
      "outputs": [],
      "payable": false,
      "stateMutability": "nonpayable",
      "type": "function"
    },
    {
      "constant": false,
      "inputs": [
        {
          "name": "testId",
          "type": "uint256"
        },
        {
          "name": "QR",
          "type": "string"
        }
      ],
      "name": "hospitalObtain",
      "outputs": [],
      "payable": false,
      "stateMutability": "nonpayable",
      "type": "function"
    },
    {
      "constant": false,
      "inputs": [
        {
          "name": "testId",
          "type": "uint256"
        }
      ],
      "name": "labTransfer",
      "outputs": [],
      "payable": false,
      "stateMutability": "nonpayable",
      "type": "function"
    },
    {
      "constant": false,
      "inputs": [
        {
          "name": "testId",
          "type": "uint256"
        },
        {
          "name": "QR",
          "type": "string"
        }
      ],
      "name": "labObtain",
      "outputs": [],
      "payable": false,
      "stateMutability": "nonpayable",
      "type": "function"
    },
    {
      "constant": false,
      "inputs": [
        {
          "name": "testId",
          "type": "uint256"
        },
        {
          "name": "result",
          "type": "string"
        }
      ],
      "name": "updateTest",
      "outputs": [],
      "payable": false,
      "stateMutability": "nonpayable",
      "type": "function"
    },
    {
      "constant": true,
      "inputs": [
        {
          "name": "testId",
          "type": "uint256"
        }
      ],
      "name": "checkTest",
      "outputs": [
        {
          "name": "factory",
          "type": "address"
        },
        {
          "name": "authority",
          "type": "address"
        },
        {
          "name": "role",
          "type": "string"
        },
        {
          "name": "result",
          "type": "string"
        },
        {
          "name": "tested",
          "type": "bool"
        },
        {
          "name": "inTransit",
          "type": "bool"
        },
        {
          "name": "date",
          "type": "uint256"
        },
        {
          "name": "certified",
          "type": "bool"
        }
      ],
      "payable": false,
      "stateMutability": "view",
      "type": "function"
    },
    {
      "constant": true,
      "inputs": [],
      "name": "totalSupply",
      "outputs": [
        {
          "name": "",
          "type": "uint256"
        }
      ],
      "payable": false,
      "stateMutability": "view",
      "type": "function"
    },
    {
      "constant": true,
      "inputs": [
        {
          "name": "authority",
          "type": "address"
        }
      ],
      "name": "getTests",
      "outputs": [
        {
          "name": "",
          "type": "uint256[]"
        }
      ],
      "payable": false,
      "stateMutability": "view",
      "type": "function"
    },
    {
      "constant": true,
      "inputs": [
        {
          "name": "entity",
          "type": "address"
        }
      ],
      "name": "checkCertification",
      "outputs": [
        {
          "name": "",
          "type": "bool"
        }
      ],
      "payable": false,
      "stateMutability": "view",
      "type": "function"
    }
  ],
  "bytecode": "0x60806040526000600860006101000a81548173ffffffffffffffffffffffffffffffffffffffff021916908373ffffffffffffffffffffffffffffffffffffffff160217905550336000806101000a81548173ffffffffffffffffffffffffffffffffffffffff021916908373ffffffffffffffffffffffffffffffffffffffff16021790555061228a806100956000396000f3fe608060405234801561001057600080fd5b506004361061010b5760003560e01c80634e290287116100a25780638da5cb5b116100715780638da5cb5b146104845780639730d76c146104ce578063c0c442d014610551578063dbc6ba38146105ca578063f474e3021461076b5761010b565b80634e2902871461034b5780636ba9b99014610379578063708595bc146103bd578063884f5f49146104015761010b565b806318160ddd116100de57806318160ddd146102205780631ab4f0621461023e578063321052da1461026c5780633c577ad1146102c85761010b565b8063090ee73a146101105780630b7209261461015457806313af40351461019857806317b64d36146101dc575b600080fd5b6101526004803603602081101561012657600080fd5b81019080803573ffffffffffffffffffffffffffffffffffffffff169060200190929190505050610804565b005b6101966004803603602081101561016a57600080fd5b81019080803573ffffffffffffffffffffffffffffffffffffffff1690602001909291905050506108a1565b005b6101da600480360360208110156101ae57600080fd5b81019080803573ffffffffffffffffffffffffffffffffffffffff16906020019092919050505061099a565b005b61021e600480360360208110156101f257600080fd5b81019080803573ffffffffffffffffffffffffffffffffffffffff169060200190929190505050610a36565b005b610228610b2e565b6040518082815260200191505060405180910390f35b61026a6004803603602081101561025457600080fd5b8101908080359060200190929190505050610b3b565b005b6102ae6004803603602081101561028257600080fd5b81019080803573ffffffffffffffffffffffffffffffffffffffff169060200190929190505050610d54565b604051808215151515815260200191505060405180910390f35b610349600480360360408110156102de57600080fd5b81019080803590602001909291908035906020019064010000000081111561030557600080fd5b82018360208201111561031757600080fd5b8035906020019184600183028401116401000000008311171561033957600080fd5b9091929391929390505050610daa565b005b6103776004803603602081101561036157600080fd5b81019080803590602001909291905050506110bb565b005b6103bb6004803603602081101561038f57600080fd5b81019080803573ffffffffffffffffffffffffffffffffffffffff1690602001909291905050506112d4565b005b6103ff600480360360208110156103d357600080fd5b81019080803573ffffffffffffffffffffffffffffffffffffffff1690602001909291905050506113cd565b005b6104826004803603604081101561041757600080fd5b81019080803590602001909291908035906020019064010000000081111561043e57600080fd5b82018360208201111561045057600080fd5b8035906020019184600183028401116401000000008311171561047257600080fd5b9091929391929390505050611482565b005b61048c6115e3565b604051808273ffffffffffffffffffffffffffffffffffffffff1673ffffffffffffffffffffffffffffffffffffffff16815260200191505060405180910390f35b61054f600480360360408110156104e457600080fd5b81019080803590602001909291908035906020019064010000000081111561050b57600080fd5b82018360208201111561051d57600080fd5b8035906020019184600183028401116401000000008311171561053f57600080fd5b9091929391929390505050611608565b005b6105c86004803603602081101561056757600080fd5b810190808035906020019064010000000081111561058457600080fd5b82018360208201111561059657600080fd5b803590602001918460018302840111640100000000831117156105b857600080fd5b9091929391929390505050611919565b005b6105f6600480360360208110156105e057600080fd5b8101908080359060200190929190505050611c14565b604051808973ffffffffffffffffffffffffffffffffffffffff1673ffffffffffffffffffffffffffffffffffffffff1681526020018873ffffffffffffffffffffffffffffffffffffffff1673ffffffffffffffffffffffffffffffffffffffff1681526020018060200180602001871515151581526020018615151515815260200185815260200184151515158152602001838103835289818151815260200191508051906020019080838360005b838110156106c25780820151818401526020810190506106a7565b50505050905090810190601f1680156106ef5780820380516001836020036101000a031916815260200191505b50838103825288818151815260200191508051906020019080838360005b8381101561072857808201518184015260208101905061070d565b50505050905090810190601f1680156107555780820380516001836020036101000a031916815260200191505b509a505050505050505050505060405180910390f35b6107ad6004803603602081101561078157600080fd5b81019080803573ffffffffffffffffffffffffffffffffffffffff169060200190929190505050611ee0565b6040518080602001828103825283818151815260200191508051906020019060200280838360005b838110156107f05780820151818401526020810190506107d5565b505050509050019250505060405180910390f35b80600860006101000a81548173ffffffffffffffffffffffffffffffffffffffff021916908373ffffffffffffffffffffffffffffffffffffffff1602179055506000809054906101000a900473ffffffffffffffffffffffffffffffffffffffff1673ffffffffffffffffffffffffffffffffffffffff163373ffffffffffffffffffffffffffffffffffffffff161461089e57600080fd5b50565b6001600360008373ffffffffffffffffffffffffffffffffffffffff1673ffffffffffffffffffffffffffffffffffffffff16815260200190815260200160002060006101000a81548160ff0219169083151502179055506000600660008373ffffffffffffffffffffffffffffffffffffffff1673ffffffffffffffffffffffffffffffffffffffff168152602001908152602001600020819055506000809054906101000a900473ffffffffffffffffffffffffffffffffffffffff1673ffffffffffffffffffffffffffffffffffffffff163373ffffffffffffffffffffffffffffffffffffffff161461099757600080fd5b50565b806000806101000a81548173ffffffffffffffffffffffffffffffffffffffff021916908373ffffffffffffffffffffffffffffffffffffffff1602179055506000809054906101000a900473ffffffffffffffffffffffffffffffffffffffff1673ffffffffffffffffffffffffffffffffffffffff163373ffffffffffffffffffffffffffffffffffffffff1614610a3357600080fd5b50565b60018060008373ffffffffffffffffffffffffffffffffffffffff1673ffffffffffffffffffffffffffffffffffffffff16815260200190815260200160002060006101000a81548160ff0219169083151502179055506000600660008373ffffffffffffffffffffffffffffffffffffffff1673ffffffffffffffffffffffffffffffffffffffff168152602001908152602001600020819055506000809054906101000a900473ffffffffffffffffffffffffffffffffffffffff1673ffffffffffffffffffffffffffffffffffffffff163373ffffffffffffffffffffffffffffffffffffffff1614610b2b57600080fd5b50565b6000600480549050905090565b600260003373ffffffffffffffffffffffffffffffffffffffff1673ffffffffffffffffffffffffffffffffffffffff16815260200190815260200160002060009054906101000a900460ff16610b9157600080fd5b60048181548110610b9e57fe5b906000526020600020906006020160030160009054906101000a900460ff1615610bc757600080fd5b60405160200180807f686f73706974616c00000000000000000000000000000000000000000000000081525060080190506040516020818303038152906040528051906020012060048281548110610c1b57fe5b90600052602060002090600602016001016040516020018082805460018160011615610100020316600290048015610c8a5780601f10610c68576101008083540402835291820191610c8a565b820191906000526020600020905b815481529060010190602001808311610c76575b50509150506040516020818303038152906040528051906020012014610caf57600080fd5b3373ffffffffffffffffffffffffffffffffffffffff166005600083815260200190815260200160002060009054906101000a900473ffffffffffffffffffffffffffffffffffffffff1673ffffffffffffffffffffffffffffffffffffffff1614610d1a57600080fd5b600160048281548110610d2957fe5b906000526020600020906006020160030160006101000a81548160ff02191690831515021790555050565b6000600760008373ffffffffffffffffffffffffffffffffffffffff1673ffffffffffffffffffffffffffffffffffffffff16815260200190815260200160002060009054906101000a900460ff169050919050565b600360003373ffffffffffffffffffffffffffffffffffffffff1673ffffffffffffffffffffffffffffffffffffffff16815260200190815260200160002060009054906101000a900460ff16610e0057600080fd5b60048381548110610e0d57fe5b90600052602060002090600602016004015482826040516020018083838082843780830192505050925050506040516020818303038152906040528051906020012014610e5957600080fd5b60048381548110610e6657fe5b906000526020600020906006020160030160009054906101000a900460ff16610e8e57600080fd5b60405160200180807f686f73706974616c00000000000000000000000000000000000000000000000081525060080190506040516020818303038152906040528051906020012060048481548110610ee257fe5b90600052602060002090600602016001016040516020018082805460018160011615610100020316600290048015610f515780601f10610f2f576101008083540402835291820191610f51565b820191906000526020600020905b815481529060010190602001808311610f3d575b50509150506040516020818303038152906040528051906020012014610f7657600080fd5b600060048481548110610f8557fe5b906000526020600020906006020160030160006101000a81548160ff0219169083151502179055506040518060400160405280600381526020017f6c6162000000000000000000000000000000000000000000000000000000000081525060048481548110610ff057fe5b9060005260206000209060060201600101908051906020019061101492919061205f565b50336005600085815260200190815260200160002060006101000a81548173ffffffffffffffffffffffffffffffffffffffff021916908373ffffffffffffffffffffffffffffffffffffffff160217905550600660003373ffffffffffffffffffffffffffffffffffffffff1673ffffffffffffffffffffffffffffffffffffffff16815260200190815260200160002060008154809291906001019190505550505050565b600160003373ffffffffffffffffffffffffffffffffffffffff1673ffffffffffffffffffffffffffffffffffffffff16815260200190815260200160002060009054906101000a900460ff1661111157600080fd5b6004818154811061111e57fe5b906000526020600020906006020160030160009054906101000a900460ff161561114757600080fd5b60405160200180807f666163746f7279000000000000000000000000000000000000000000000000008152506007019050604051602081830303815290604052805190602001206004828154811061119b57fe5b9060005260206000209060060201600101604051602001808280546001816001161561010002031660029004801561120a5780601f106111e857610100808354040283529182019161120a565b820191906000526020600020905b8154815290600101906020018083116111f6575b5050915050604051602081830303815290604052805190602001201461122f57600080fd5b3373ffffffffffffffffffffffffffffffffffffffff166005600083815260200190815260200160002060009054906101000a900473ffffffffffffffffffffffffffffffffffffffff1673ffffffffffffffffffffffffffffffffffffffff161461129a57600080fd5b6001600482815481106112a957fe5b906000526020600020906006020160030160006101000a81548160ff02191690831515021790555050565b6001600260008373ffffffffffffffffffffffffffffffffffffffff1673ffffffffffffffffffffffffffffffffffffffff16815260200190815260200160002060006101000a81548160ff0219169083151502179055506000600660008373ffffffffffffffffffffffffffffffffffffffff1673ffffffffffffffffffffffffffffffffffffffff168152602001908152602001600020819055506000809054906101000a900473ffffffffffffffffffffffffffffffffffffffff1673ffffffffffffffffffffffffffffffffffffffff163373ffffffffffffffffffffffffffffffffffffffff16146113ca57600080fd5b50565b600860009054906101000a900473ffffffffffffffffffffffffffffffffffffffff1673ffffffffffffffffffffffffffffffffffffffff163373ffffffffffffffffffffffffffffffffffffffff161461142757600080fd5b6001600760008373ffffffffffffffffffffffffffffffffffffffff1673ffffffffffffffffffffffffffffffffffffffff16815260200190815260200160002060006101000a81548160ff02191690831515021790555050565b600360003373ffffffffffffffffffffffffffffffffffffffff1673ffffffffffffffffffffffffffffffffffffffff16815260200190815260200160002060009054906101000a900460ff166114d857600080fd5b3373ffffffffffffffffffffffffffffffffffffffff166005600085815260200190815260200160002060009054906101000a900473ffffffffffffffffffffffffffffffffffffffff1673ffffffffffffffffffffffffffffffffffffffff161461154357600080fd5b6004838154811061155057fe5b906000526020600020906006020160030160019054906101000a900460ff161561157957600080fd5b81816004858154811061158857fe5b906000526020600020906006020160020191906115a69291906120df565b506001600484815481106115b657fe5b906000526020600020906006020160030160016101000a81548160ff021916908315150217905550505050565b6000809054906101000a900473ffffffffffffffffffffffffffffffffffffffff1681565b600260003373ffffffffffffffffffffffffffffffffffffffff1673ffffffffffffffffffffffffffffffffffffffff16815260200190815260200160002060009054906101000a900460ff1661165e57600080fd5b6004838154811061166b57fe5b906000526020600020906006020160040154828260405160200180838380828437808301925050509250505060405160208183030381529060405280519060200120146116b757600080fd5b600483815481106116c457fe5b906000526020600020906006020160030160009054906101000a900460ff166116ec57600080fd5b60405160200180807f666163746f7279000000000000000000000000000000000000000000000000008152506007019050604051602081830303815290604052805190602001206004848154811061174057fe5b906000526020600020906006020160010160405160200180828054600181600116156101000203166002900480156117af5780601f1061178d5761010080835404028352918201916117af565b820191906000526020600020905b81548152906001019060200180831161179b575b505091505060405160208183030381529060405280519060200120146117d457600080fd5b6000600484815481106117e357fe5b906000526020600020906006020160030160006101000a81548160ff0219169083151502179055506040518060400160405280600881526020017f686f73706974616c0000000000000000000000000000000000000000000000008152506004848154811061184e57fe5b9060005260206000209060060201600101908051906020019061187292919061205f565b50336005600085815260200190815260200160002060006101000a81548173ffffffffffffffffffffffffffffffffffffffff021916908373ffffffffffffffffffffffffffffffffffffffff160217905550600660003373ffffffffffffffffffffffffffffffffffffffff1673ffffffffffffffffffffffffffffffffffffffff16815260200190815260200160002060008154809291906001019190505550505050565b600160003373ffffffffffffffffffffffffffffffffffffffff1673ffffffffffffffffffffffffffffffffffffffff16815260200190815260200160002060009054906101000a900460ff1661196f57600080fd5b61197761215f565b6040518060e001604052803373ffffffffffffffffffffffffffffffffffffffff1681526020016040518060400160405280600781526020017f666163746f72790000000000000000000000000000000000000000000000000081525081526020016040518060400160405280600481526020017f6e6f6e650000000000000000000000000000000000000000000000000000000081525081526020016000151581526020016000151581526020018484604051602001808383808284378083019250505092505050604051602081830303815290604052805190602001208152602001428152509050600060016004839080600181540180825580915050906001820390600052602060002090600602016000909192909190915060008201518160000160006101000a81548173ffffffffffffffffffffffffffffffffffffffff021916908373ffffffffffffffffffffffffffffffffffffffff1602179055506020820151816001019080519060200190611af69291906121b9565b506040820151816002019080519060200190611b139291906121b9565b5060608201518160030160006101000a81548160ff02191690831515021790555060808201518160030160016101000a81548160ff02191690831515021790555060a0820151816004015560c082015181600501555050039050336005600083815260200190815260200160002060006101000a81548173ffffffffffffffffffffffffffffffffffffffff021916908373ffffffffffffffffffffffffffffffffffffffff160217905550600660003373ffffffffffffffffffffffffffffffffffffffff1673ffffffffffffffffffffffffffffffffffffffff1681526020019081526020016000206000815480929190600101919050555050505050565b60008060608060008060008060048981548110611c2d57fe5b906000526020600020906006020160000160009054906101000a900473ffffffffffffffffffffffffffffffffffffffff169750600560008a815260200190815260200160002060009054906101000a900473ffffffffffffffffffffffffffffffffffffffff16965060048981548110611ca457fe5b90600052602060002090600602016001018054600181600116156101000203166002900480601f016020809104026020016040519081016040528092919081815260200182805460018160011615610100020316600290048015611d495780601f10611d1e57610100808354040283529160200191611d49565b820191906000526020600020905b815481529060010190602001808311611d2c57829003601f168201915b5050505050955060048981548110611d5d57fe5b90600052602060002090600602016002018054600181600116156101000203166002900480601f016020809104026020016040519081016040528092919081815260200182805460018160011615610100020316600290048015611e025780601f10611dd757610100808354040283529160200191611e02565b820191906000526020600020905b815481529060010190602001808311611de557829003601f168201915b5050505050945060048981548110611e1657fe5b906000526020600020906006020160030160019054906101000a900460ff16935060048981548110611e4457fe5b906000526020600020906006020160030160009054906101000a900460ff16925060048981548110611e7257fe5b9060005260206000209060060201600501549150600760008973ffffffffffffffffffffffffffffffffffffffff1673ffffffffffffffffffffffffffffffffffffffff16815260200190815260200160002060009054906101000a900460ff169050919395975091939597565b60606000600660008473ffffffffffffffffffffffffffffffffffffffff1673ffffffffffffffffffffffffffffffffffffffff1681526020019081526020016000205490506000811415611f68576000604051908082528060200260200182016040528015611f5f5781602001602082028038833980820191505090505b5091505061205a565b606081604051908082528060200260200182016040528015611f995781602001602082028038833980820191505090505b5090506000611fa6610b2e565b9050600080905060008090505b82811015612051578673ffffffffffffffffffffffffffffffffffffffff166005600083815260200190815260200160002060009054906101000a900473ffffffffffffffffffffffffffffffffffffffff1673ffffffffffffffffffffffffffffffffffffffff161415612044578084838151811061202f57fe5b60200260200101818152505081806001019250505b8080600101915050611fb3565b50829450505050505b919050565b828054600181600116156101000203166002900490600052602060002090601f016020900481019282601f106120a057805160ff19168380011785556120ce565b828001600101855582156120ce579182015b828111156120cd5782518255916020019190600101906120b2565b5b5090506120db9190612239565b5090565b828054600181600116156101000203166002900490600052602060002090601f016020900481019282601f1061212057803560ff191683800117855561214e565b8280016001018555821561214e579182015b8281111561214d578235825591602001919060010190612132565b5b50905061215b9190612239565b5090565b6040518060e00160405280600073ffffffffffffffffffffffffffffffffffffffff168152602001606081526020016060815260200160001515815260200160001515815260200160008019168152602001600081525090565b828054600181600116156101000203166002900490600052602060002090601f016020900481019282601f106121fa57805160ff1916838001178555612228565b82800160010185558215612228579182015b8281111561222757825182559160200191906001019061220c565b5b5090506122359190612239565b5090565b61225b91905b8082111561225757600081600090555060010161223f565b5090565b9056fea165627a7a72305820e04d9295945e6a840d4d63a7f3554b205bc8a4f04b6e68b175fd93cbb9f9ff3a0029",
  "source": "pragma solidity ^0.5.0;\nimport \"./Ownership.sol\";\n\ncontract TestFactory is Ownership {\n    // establishes roles for entities\n    mapping(address => bool) isFactory;\n    mapping(address => bool) isHospital;\n    mapping(address => bool) isLab;\n\n    // metadata for test\n    struct Test {\n        address factory;\n        string role;\n        string result;\n        bool inTransit;\n        bool tested;\n        bytes32 QR;\n        uint date;\n    }\n\n    Test[] tests;\n\n    mapping(uint => address) testAuthority;\n    mapping(address => uint) authorityTests;\n    mapping(address => bool) factoryCertified;\n\n    address FDA = address(0);\n\n    function becomeFDA(address entity) external onlyOwner {\n        FDA = entity;\n    }\n\n    function becomeFactory(address entity) external onlyOwner {\n        isFactory[entity] = true;\n        authorityTests[entity] = 0;\n    }\n\n    function becomeHospital(address entity) external onlyOwner {\n        isHospital[entity] = true;\n        authorityTests[entity] = 0;\n    }\n\n    function becomeLab(address entity) external onlyOwner {\n        isLab[entity] = true;\n        authorityTests[entity] = 0;\n    }\n\n    function certifyFactory(address entity) external {\n        require(msg.sender == FDA);\n        factoryCertified[entity] = true;\n    }\n\n    function createTest(string calldata QR) external {\n        require(isFactory[msg.sender]);\n        Test memory test = Test({ factory: msg.sender, role: \"factory\", result: \"none\", tested: false, inTransit: false, QR: keccak256(abi.encodePacked(QR)), date: now });\n        uint testId = tests.push(test) - 1;\n        testAuthority[testId] = msg.sender;\n        authorityTests[msg.sender]++;\n    }\n\n    function hospitalTransfer(uint testId) external {\n        require(isFactory[msg.sender]);\n        require(!tests[testId].inTransit);\n        require(keccak256(abi.encodePacked((tests[testId].role))) == keccak256(abi.encodePacked((\"factory\"))));\n        require(testAuthority[testId] == msg.sender);\n        tests[testId].inTransit = true;\n    }\n\n    function hospitalObtain(uint testId, string calldata QR) external {\n        require(isHospital[msg.sender]);\n        require(keccak256(abi.encodePacked(QR)) == tests[testId].QR);\n        require(tests[testId].inTransit);\n        require(keccak256(abi.encodePacked((tests[testId].role))) == keccak256(abi.encodePacked((\"factory\"))));\n        tests[testId].inTransit = false;\n        tests[testId].role = \"hospital\";\n        testAuthority[testId] = msg.sender;\n        authorityTests[msg.sender]++;\n    }\n\n    function labTransfer(uint testId) external {\n        require(isHospital[msg.sender]);\n        require(!tests[testId].inTransit);\n        require(keccak256(abi.encodePacked((tests[testId].role))) == keccak256(abi.encodePacked((\"hospital\"))));\n        require(testAuthority[testId] == msg.sender);\n        tests[testId].inTransit = true;\n    }\n\n    function labObtain(uint testId, string calldata QR) external {\n        require(isLab[msg.sender]);\n        require(keccak256(abi.encodePacked(QR)) == tests[testId].QR);\n        require(tests[testId].inTransit);\n        require(keccak256(abi.encodePacked((tests[testId].role))) == keccak256(abi.encodePacked((\"hospital\"))));\n        tests[testId].inTransit = false;\n        tests[testId].role = \"lab\";\n        testAuthority[testId] = msg.sender;\n        authorityTests[msg.sender]++;\n    }\n\n    function updateTest(uint testId, string calldata result) external {\n        require(isLab[msg.sender]);\n        require(testAuthority[testId] == msg.sender);\n        require(!tests[testId].tested);\n        tests[testId].result = result;\n        tests[testId].tested = true;\n    }\n\n    function checkTest(uint testId) external view returns(\n        address factory, address authority, string memory role, string memory result, bool tested, bool inTransit, uint date, bool certified\n    ) {\n        factory = tests[testId].factory;\n        authority = testAuthority[testId];\n        role = tests[testId].role;\n        result = tests[testId].result;\n        tested = tests[testId].tested;\n        inTransit = tests[testId].inTransit;\n        date = tests[testId].date;\n        certified = factoryCertified[factory];\n    }\n\n    function totalSupply() public view returns (uint) {\n        return tests.length;\n    }\n\n    function getTests(address authority) external view returns (uint[] memory) {\n        uint testCount = authorityTests[authority];\n\n        if (testCount == 0) {\n            return new uint[](0);\n        } else {\n            uint[] memory result = new uint[](testCount);\n            uint totalTests = totalSupply();\n            uint resultIndex = 0;\n\n            for (uint testId = 0; testId < totalTests; testId++) {\n                if (testAuthority[testId] == authority) {\n                    result[resultIndex] = testId;\n                    resultIndex++;\n                }\n            }\n\n            return result;\n        }\n    }\n\n    function checkCertification(address entity) external view returns (bool) {\n        return factoryCertified[entity];\n    }\n }\n",
  "sourcePath": "/Users/jackieni/dev/hackathon/berify/berify-server/contracts/TestFactory.sol",
  "compiler": {
    "name": "solc",
    "version": "0.5.8+commit.23d335f2.Emscripten.clang"
  },
  "schemaVersion": "3.0.11",
  "updatedAt": "2020-03-30T04:47:47.379Z",
  "devdoc": {
    "methods": {}
  },
  "userdoc": {
    "methods": {}
  }
}