{
  "contractName": "TestFactory",
  "abi": [
    {
      "constant": false,
      "inputs": [
        {
          "name": "_newOwner",
          "type": "address"
        }
      ],
      "name": "setOwner",
      "outputs": [],
      "payable": false,
      "stateMutability": "nonpayable",
      "type": "function"
    },
    {
      "constant": true,
      "inputs": [],
      "name": "owner",
      "outputs": [
        {
          "name": "",
          "type": "address"
        }
      ],
      "payable": false,
      "stateMutability": "view",
      "type": "function"
    },
    {
      "constant": false,
      "inputs": [
        {
          "name": "entity",
          "type": "address"
        }
      ],
      "name": "becomeFDA",
      "outputs": [],
      "payable": false,
      "stateMutability": "nonpayable",
      "type": "function"
    },
    {
      "constant": false,
      "inputs": [
        {
          "name": "entity",
          "type": "address"
        }
      ],
      "name": "becomeFactory",
      "outputs": [],
      "payable": false,
      "stateMutability": "nonpayable",
      "type": "function"
    },
    {
      "constant": false,
      "inputs": [
        {
          "name": "entity",
          "type": "address"
        }
      ],
      "name": "becomeHospital",
      "outputs": [],
      "payable": false,
      "stateMutability": "nonpayable",
      "type": "function"
    },
    {
      "constant": false,
      "inputs": [
        {
          "name": "entity",
          "type": "address"
        }
      ],
      "name": "becomeLab",
      "outputs": [],
      "payable": false,
      "stateMutability": "nonpayable",
      "type": "function"
    },
    {
      "constant": false,
      "inputs": [
        {
          "name": "entity",
          "type": "address"
        }
      ],
      "name": "certifyFactory",
      "outputs": [],
      "payable": false,
      "stateMutability": "nonpayable",
      "type": "function"
    },
    {
      "constant": false,
      "inputs": [
        {
          "name": "QR",
          "type": "string"
        }
      ],
      "name": "createTest",
      "outputs": [],
      "payable": false,
      "stateMutability": "nonpayable",
      "type": "function"
    },
    {
      "constant": false,
      "inputs": [
        {
          "name": "testId",
          "type": "uint256"
        }
      ],
      "name": "hospitalTransfer",
      "outputs": [],
      "payable": false,
      "stateMutability": "nonpayable",
      "type": "function"
    },
    {
      "constant": false,
      "inputs": [
        {
          "name": "testId",
          "type": "uint256"
        },
        {
          "name": "QR",
          "type": "string"
        }
      ],
      "name": "hospitalObtain",
      "outputs": [],
      "payable": false,
      "stateMutability": "nonpayable",
      "type": "function"
    },
    {
      "constant": false,
      "inputs": [
        {
          "name": "testId",
          "type": "uint256"
        }
      ],
      "name": "labTransfer",
      "outputs": [],
      "payable": false,
      "stateMutability": "nonpayable",
      "type": "function"
    },
    {
      "constant": false,
      "inputs": [
        {
          "name": "testId",
          "type": "uint256"
        },
        {
          "name": "QR",
          "type": "string"
        }
      ],
      "name": "labObtain",
      "outputs": [],
      "payable": false,
      "stateMutability": "nonpayable",
      "type": "function"
    },
    {
      "constant": false,
      "inputs": [
        {
          "name": "testId",
          "type": "uint256"
        },
        {
          "name": "result",
          "type": "bool"
        }
      ],
      "name": "updateTest",
      "outputs": [],
      "payable": false,
      "stateMutability": "nonpayable",
      "type": "function"
    },
    {
      "constant": true,
      "inputs": [
        {
          "name": "testId",
          "type": "uint256"
        }
      ],
      "name": "checkTest",
      "outputs": [
        {
          "name": "factory",
          "type": "address"
        },
        {
          "name": "authority",
          "type": "address"
        },
        {
          "name": "role",
          "type": "string"
        },
        {
          "name": "result",
          "type": "bool"
        },
        {
          "name": "inTransit",
          "type": "bool"
        },
        {
          "name": "date",
          "type": "uint256"
        },
        {
          "name": "certified",
          "type": "bool"
        }
      ],
      "payable": false,
      "stateMutability": "view",
      "type": "function"
    },
    {
      "constant": true,
      "inputs": [],
      "name": "totalSupply",
      "outputs": [
        {
          "name": "",
          "type": "uint256"
        }
      ],
      "payable": false,
      "stateMutability": "view",
      "type": "function"
    },
    {
      "constant": true,
      "inputs": [
        {
          "name": "authority",
          "type": "address"
        }
      ],
      "name": "getTests",
      "outputs": [
        {
          "name": "",
          "type": "uint256[]"
        }
      ],
      "payable": false,
      "stateMutability": "view",
      "type": "function"
    },
    {
      "constant": true,
      "inputs": [
        {
          "name": "entity",
          "type": "address"
        }
      ],
      "name": "checkCertification",
      "outputs": [
        {
          "name": "",
          "type": "bool"
        }
      ],
      "payable": false,
      "stateMutability": "view",
      "type": "function"
    }
  ],
  "bytecode": "0x60806040526000600860006101000a81548173ffffffffffffffffffffffffffffffffffffffff021916908373ffffffffffffffffffffffffffffffffffffffff160217905550336000806101000a81548173ffffffffffffffffffffffffffffffffffffffff021916908373ffffffffffffffffffffffffffffffffffffffff160217905550611fd6806100956000396000f3fe608060405234801561001057600080fd5b506004361061010b5760003560e01c80633c577ad1116100a25780638da5cb5b116100715780638da5cb5b1461043b5780639730d76c14610485578063c0c442d014610508578063dbc6ba3814610581578063f474e302146106b65761010b565b80633c577ad1146103025780634e290287146103855780636ba9b990146103b3578063708595bc146103f75761010b565b806318160ddd116100de57806318160ddd146102205780631ab4f0621461023e57806320bc33511461026c578063321052da146102a65761010b565b8063090ee73a146101105780630b7209261461015457806313af40351461019857806317b64d36146101dc575b600080fd5b6101526004803603602081101561012657600080fd5b81019080803573ffffffffffffffffffffffffffffffffffffffff16906020019092919050505061074f565b005b6101966004803603602081101561016a57600080fd5b81019080803573ffffffffffffffffffffffffffffffffffffffff1690602001909291905050506107ec565b005b6101da600480360360208110156101ae57600080fd5b81019080803573ffffffffffffffffffffffffffffffffffffffff1690602001909291905050506108e5565b005b61021e600480360360208110156101f257600080fd5b81019080803573ffffffffffffffffffffffffffffffffffffffff169060200190929190505050610981565b005b610228610a79565b6040518082815260200191505060405180910390f35b61026a6004803603602081101561025457600080fd5b8101908080359060200190929190505050610a86565b005b6102a46004803603604081101561028257600080fd5b8101908080359060200190929190803515159060200190929190505050610c9f565b005b6102e8600480360360208110156102bc57600080fd5b81019080803573ffffffffffffffffffffffffffffffffffffffff169060200190929190505050610d9a565b604051808215151515815260200191505060405180910390f35b6103836004803603604081101561031857600080fd5b81019080803590602001909291908035906020019064010000000081111561033f57600080fd5b82018360208201111561035157600080fd5b8035906020019184600183028401116401000000008311171561037357600080fd5b9091929391929390505050610df0565b005b6103b16004803603602081101561039b57600080fd5b8101908080359060200190929190505050611101565b005b6103f5600480360360208110156103c957600080fd5b81019080803573ffffffffffffffffffffffffffffffffffffffff16906020019092919050505061131a565b005b6104396004803603602081101561040d57600080fd5b81019080803573ffffffffffffffffffffffffffffffffffffffff169060200190929190505050611413565b005b6104436114c8565b604051808273ffffffffffffffffffffffffffffffffffffffff1673ffffffffffffffffffffffffffffffffffffffff16815260200191505060405180910390f35b6105066004803603604081101561049b57600080fd5b8101908080359060200190929190803590602001906401000000008111156104c257600080fd5b8201836020820111156104d457600080fd5b803590602001918460018302840111640100000000831117156104f657600080fd5b90919293919293905050506114ed565b005b61057f6004803603602081101561051e57600080fd5b810190808035906020019064010000000081111561053b57600080fd5b82018360208201111561054d57600080fd5b8035906020019184600183028401116401000000008311171561056f57600080fd5b90919293919293905050506117fe565b005b6105ad6004803603602081101561059757600080fd5b8101908080359060200190929190505050611aa1565b604051808873ffffffffffffffffffffffffffffffffffffffff1673ffffffffffffffffffffffffffffffffffffffff1681526020018773ffffffffffffffffffffffffffffffffffffffff1673ffffffffffffffffffffffffffffffffffffffff16815260200180602001861515151581526020018515151515815260200184815260200183151515158152602001828103825287818151815260200191508051906020019080838360005b8381101561067557808201518184015260208101905061065a565b50505050905090810190601f1680156106a25780820380516001836020036101000a031916815260200191505b509850505050505050505060405180910390f35b6106f8600480360360208110156106cc57600080fd5b81019080803573ffffffffffffffffffffffffffffffffffffffff169060200190929190505050611cb3565b6040518080602001828103825283818151815260200191508051906020019060200280838360005b8381101561073b578082015181840152602081019050610720565b505050509050019250505060405180910390f35b80600860006101000a81548173ffffffffffffffffffffffffffffffffffffffff021916908373ffffffffffffffffffffffffffffffffffffffff1602179055506000809054906101000a900473ffffffffffffffffffffffffffffffffffffffff1673ffffffffffffffffffffffffffffffffffffffff163373ffffffffffffffffffffffffffffffffffffffff16146107e957600080fd5b50565b6001600360008373ffffffffffffffffffffffffffffffffffffffff1673ffffffffffffffffffffffffffffffffffffffff16815260200190815260200160002060006101000a81548160ff0219169083151502179055506000600660008373ffffffffffffffffffffffffffffffffffffffff1673ffffffffffffffffffffffffffffffffffffffff168152602001908152602001600020819055506000809054906101000a900473ffffffffffffffffffffffffffffffffffffffff1673ffffffffffffffffffffffffffffffffffffffff163373ffffffffffffffffffffffffffffffffffffffff16146108e257600080fd5b50565b806000806101000a81548173ffffffffffffffffffffffffffffffffffffffff021916908373ffffffffffffffffffffffffffffffffffffffff1602179055506000809054906101000a900473ffffffffffffffffffffffffffffffffffffffff1673ffffffffffffffffffffffffffffffffffffffff163373ffffffffffffffffffffffffffffffffffffffff161461097e57600080fd5b50565b60018060008373ffffffffffffffffffffffffffffffffffffffff1673ffffffffffffffffffffffffffffffffffffffff16815260200190815260200160002060006101000a81548160ff0219169083151502179055506000600660008373ffffffffffffffffffffffffffffffffffffffff1673ffffffffffffffffffffffffffffffffffffffff168152602001908152602001600020819055506000809054906101000a900473ffffffffffffffffffffffffffffffffffffffff1673ffffffffffffffffffffffffffffffffffffffff163373ffffffffffffffffffffffffffffffffffffffff1614610a7657600080fd5b50565b6000600480549050905090565b600260003373ffffffffffffffffffffffffffffffffffffffff1673ffffffffffffffffffffffffffffffffffffffff16815260200190815260200160002060009054906101000a900460ff16610adc57600080fd5b60048181548110610ae957fe5b906000526020600020906005020160020160019054906101000a900460ff1615610b1257600080fd5b60405160200180807f686f73706974616c00000000000000000000000000000000000000000000000081525060080190506040516020818303038152906040528051906020012060048281548110610b6657fe5b90600052602060002090600502016001016040516020018082805460018160011615610100020316600290048015610bd55780601f10610bb3576101008083540402835291820191610bd5565b820191906000526020600020905b815481529060010190602001808311610bc1575b50509150506040516020818303038152906040528051906020012014610bfa57600080fd5b3373ffffffffffffffffffffffffffffffffffffffff166005600083815260200190815260200160002060009054906101000a900473ffffffffffffffffffffffffffffffffffffffff1673ffffffffffffffffffffffffffffffffffffffff1614610c6557600080fd5b600160048281548110610c7457fe5b906000526020600020906005020160020160016101000a81548160ff02191690831515021790555050565b600360003373ffffffffffffffffffffffffffffffffffffffff1673ffffffffffffffffffffffffffffffffffffffff16815260200190815260200160002060009054906101000a900460ff16610cf557600080fd5b3373ffffffffffffffffffffffffffffffffffffffff166005600084815260200190815260200160002060009054906101000a900473ffffffffffffffffffffffffffffffffffffffff1673ffffffffffffffffffffffffffffffffffffffff1614610d6057600080fd5b8060048381548110610d6e57fe5b906000526020600020906005020160020160006101000a81548160ff0219169083151502179055505050565b6000600760008373ffffffffffffffffffffffffffffffffffffffff1673ffffffffffffffffffffffffffffffffffffffff16815260200190815260200160002060009054906101000a900460ff169050919050565b600360003373ffffffffffffffffffffffffffffffffffffffff1673ffffffffffffffffffffffffffffffffffffffff16815260200190815260200160002060009054906101000a900460ff16610e4657600080fd5b60048381548110610e5357fe5b90600052602060002090600502016003015482826040516020018083838082843780830192505050925050506040516020818303038152906040528051906020012014610e9f57600080fd5b60048381548110610eac57fe5b906000526020600020906005020160020160019054906101000a900460ff16610ed457600080fd5b60405160200180807f686f73706974616c00000000000000000000000000000000000000000000000081525060080190506040516020818303038152906040528051906020012060048481548110610f2857fe5b90600052602060002090600502016001016040516020018082805460018160011615610100020316600290048015610f975780601f10610f75576101008083540402835291820191610f97565b820191906000526020600020905b815481529060010190602001808311610f83575b50509150506040516020818303038152906040528051906020012014610fbc57600080fd5b600060048481548110610fcb57fe5b906000526020600020906005020160020160016101000a81548160ff0219169083151502179055506040518060400160405280600381526020017f6c616200000000000000000000000000000000000000000000000000000000008152506004848154811061103657fe5b9060005260206000209060050201600101908051906020019061105a929190611e32565b50336005600085815260200190815260200160002060006101000a81548173ffffffffffffffffffffffffffffffffffffffff021916908373ffffffffffffffffffffffffffffffffffffffff160217905550600660003373ffffffffffffffffffffffffffffffffffffffff1673ffffffffffffffffffffffffffffffffffffffff16815260200190815260200160002060008154809291906001019190505550505050565b600160003373ffffffffffffffffffffffffffffffffffffffff1673ffffffffffffffffffffffffffffffffffffffff16815260200190815260200160002060009054906101000a900460ff1661115757600080fd5b6004818154811061116457fe5b906000526020600020906005020160020160019054906101000a900460ff161561118d57600080fd5b60405160200180807f666163746f727900000000000000000000000000000000000000000000000000815250600701905060405160208183030381529060405280519060200120600482815481106111e157fe5b906000526020600020906005020160010160405160200180828054600181600116156101000203166002900480156112505780601f1061122e576101008083540402835291820191611250565b820191906000526020600020905b81548152906001019060200180831161123c575b5050915050604051602081830303815290604052805190602001201461127557600080fd5b3373ffffffffffffffffffffffffffffffffffffffff166005600083815260200190815260200160002060009054906101000a900473ffffffffffffffffffffffffffffffffffffffff1673ffffffffffffffffffffffffffffffffffffffff16146112e057600080fd5b6001600482815481106112ef57fe5b906000526020600020906005020160020160016101000a81548160ff02191690831515021790555050565b6001600260008373ffffffffffffffffffffffffffffffffffffffff1673ffffffffffffffffffffffffffffffffffffffff16815260200190815260200160002060006101000a81548160ff0219169083151502179055506000600660008373ffffffffffffffffffffffffffffffffffffffff1673ffffffffffffffffffffffffffffffffffffffff168152602001908152602001600020819055506000809054906101000a900473ffffffffffffffffffffffffffffffffffffffff1673ffffffffffffffffffffffffffffffffffffffff163373ffffffffffffffffffffffffffffffffffffffff161461141057600080fd5b50565b600860009054906101000a900473ffffffffffffffffffffffffffffffffffffffff1673ffffffffffffffffffffffffffffffffffffffff163373ffffffffffffffffffffffffffffffffffffffff161461146d57600080fd5b6001600760008373ffffffffffffffffffffffffffffffffffffffff1673ffffffffffffffffffffffffffffffffffffffff16815260200190815260200160002060006101000a81548160ff02191690831515021790555050565b6000809054906101000a900473ffffffffffffffffffffffffffffffffffffffff1681565b600260003373ffffffffffffffffffffffffffffffffffffffff1673ffffffffffffffffffffffffffffffffffffffff16815260200190815260200160002060009054906101000a900460ff1661154357600080fd5b6004838154811061155057fe5b9060005260206000209060050201600301548282604051602001808383808284378083019250505092505050604051602081830303815290604052805190602001201461159c57600080fd5b600483815481106115a957fe5b906000526020600020906005020160020160019054906101000a900460ff166115d157600080fd5b60405160200180807f666163746f7279000000000000000000000000000000000000000000000000008152506007019050604051602081830303815290604052805190602001206004848154811061162557fe5b906000526020600020906005020160010160405160200180828054600181600116156101000203166002900480156116945780601f10611672576101008083540402835291820191611694565b820191906000526020600020905b815481529060010190602001808311611680575b505091505060405160208183030381529060405280519060200120146116b957600080fd5b6000600484815481106116c857fe5b906000526020600020906005020160020160016101000a81548160ff0219169083151502179055506040518060400160405280600881526020017f686f73706974616c0000000000000000000000000000000000000000000000008152506004848154811061173357fe5b90600052602060002090600502016001019080519060200190611757929190611e32565b50336005600085815260200190815260200160002060006101000a81548173ffffffffffffffffffffffffffffffffffffffff021916908373ffffffffffffffffffffffffffffffffffffffff160217905550600660003373ffffffffffffffffffffffffffffffffffffffff1673ffffffffffffffffffffffffffffffffffffffff16815260200190815260200160002060008154809291906001019190505550505050565b600160003373ffffffffffffffffffffffffffffffffffffffff1673ffffffffffffffffffffffffffffffffffffffff16815260200190815260200160002060009054906101000a900460ff1661185457600080fd5b61185c611eb2565b6040518060c001604052803373ffffffffffffffffffffffffffffffffffffffff1681526020016040518060400160405280600781526020017f666163746f72790000000000000000000000000000000000000000000000000081525081526020016000151581526020016000151581526020018484604051602001808383808284378083019250505092505050604051602081830303815290604052805190602001208152602001428152509050600060016004839080600181540180825580915050906001820390600052602060002090600502016000909192909190915060008201518160000160006101000a81548173ffffffffffffffffffffffffffffffffffffffff021916908373ffffffffffffffffffffffffffffffffffffffff16021790555060208201518160010190805190602001906119a0929190611f05565b5060408201518160020160006101000a81548160ff02191690831515021790555060608201518160020160016101000a81548160ff0219169083151502179055506080820151816003015560a082015181600401555050039050336005600083815260200190815260200160002060006101000a81548173ffffffffffffffffffffffffffffffffffffffff021916908373ffffffffffffffffffffffffffffffffffffffff160217905550600660003373ffffffffffffffffffffffffffffffffffffffff1673ffffffffffffffffffffffffffffffffffffffff1681526020019081526020016000206000815480929190600101919050555050505050565b600080606060008060008060048881548110611ab957fe5b906000526020600020906005020160000160009054906101000a900473ffffffffffffffffffffffffffffffffffffffff1696506005600089815260200190815260200160002060009054906101000a900473ffffffffffffffffffffffffffffffffffffffff16955060048881548110611b3057fe5b90600052602060002090600502016001018054600181600116156101000203166002900480601f016020809104026020016040519081016040528092919081815260200182805460018160011615610100020316600290048015611bd55780601f10611baa57610100808354040283529160200191611bd5565b820191906000526020600020905b815481529060010190602001808311611bb857829003601f168201915b5050505050945060048881548110611be957fe5b906000526020600020906005020160020160009054906101000a900460ff16935060048881548110611c1757fe5b906000526020600020906005020160020160019054906101000a900460ff16925060048881548110611c4557fe5b9060005260206000209060050201600401549150600760008873ffffffffffffffffffffffffffffffffffffffff1673ffffffffffffffffffffffffffffffffffffffff16815260200190815260200160002060009054906101000a900460ff169050919395979092949650565b60606000600660008473ffffffffffffffffffffffffffffffffffffffff1673ffffffffffffffffffffffffffffffffffffffff1681526020019081526020016000205490506000811415611d3b576000604051908082528060200260200182016040528015611d325781602001602082028038833980820191505090505b50915050611e2d565b606081604051908082528060200260200182016040528015611d6c5781602001602082028038833980820191505090505b5090506000611d79610a79565b9050600080905060008090505b82811015611e24578673ffffffffffffffffffffffffffffffffffffffff166005600083815260200190815260200160002060009054906101000a900473ffffffffffffffffffffffffffffffffffffffff1673ffffffffffffffffffffffffffffffffffffffff161415611e175780848381518110611e0257fe5b60200260200101818152505081806001019250505b8080600101915050611d86565b50829450505050505b919050565b828054600181600116156101000203166002900490600052602060002090601f016020900481019282601f10611e7357805160ff1916838001178555611ea1565b82800160010185558215611ea1579182015b82811115611ea0578251825591602001919060010190611e85565b5b509050611eae9190611f85565b5090565b6040518060c00160405280600073ffffffffffffffffffffffffffffffffffffffff1681526020016060815260200160001515815260200160001515815260200160008019168152602001600081525090565b828054600181600116156101000203166002900490600052602060002090601f016020900481019282601f10611f4657805160ff1916838001178555611f74565b82800160010185558215611f74579182015b82811115611f73578251825591602001919060010190611f58565b5b509050611f819190611f85565b5090565b611fa791905b80821115611fa3576000816000905550600101611f8b565b5090565b9056fea165627a7a723058206f5dbbc3c418b09922ed9f4c388b1f901f531a4ea8c4cafabda0ae088d0e3cbf0029",
  "source": "pragma solidity ^0.5.0;\nimport \"./Ownership.sol\";\n\ncontract TestFactory is Ownership {\n    // establishes roles for entities\n    mapping(address => bool) isFactory;\n    mapping(address => bool) isHospital;\n    mapping(address => bool) isLab;\n\n    // metadata for test\n    struct Test {\n        address factory;\n        string role;\n        bool result;\n        bool inTransit;\n        bytes32 QR;\n        uint date;\n    }\n\n    Test[] tests;\n\n    mapping(uint => address) testAuthority;\n    mapping(address => uint) authorityTests;\n    mapping(address => bool) factoryCertified;\n\n    address FDA = address(0);\n\n    function becomeFDA(address entity) external onlyOwner {\n        FDA = entity;\n    }\n\n    function becomeFactory(address entity) external onlyOwner {\n        isFactory[entity] = true;\n        authorityTests[entity] = 0;\n    }\n\n    function becomeHospital(address entity) external onlyOwner {\n        isHospital[entity] = true;\n        authorityTests[entity] = 0;\n    }\n\n    function becomeLab(address entity) external onlyOwner {\n        isLab[entity] = true;\n        authorityTests[entity] = 0;\n    }\n\n    function certifyFactory(address entity) external {\n        require(msg.sender == FDA);\n        factoryCertified[entity] = true;\n    }\n\n    function createTest(string calldata QR) external {\n        require(isFactory[msg.sender]);\n        Test memory test = Test({ factory: msg.sender, role: \"factory\", result: false, inTransit: false, QR: keccak256(abi.encodePacked(QR)), date: now });\n        uint testId = tests.push(test) - 1;\n        testAuthority[testId] = msg.sender;\n        authorityTests[msg.sender]++;\n    }\n\n    function hospitalTransfer(uint testId) external {\n        require(isFactory[msg.sender]);\n        require(!tests[testId].inTransit);\n        require(keccak256(abi.encodePacked((tests[testId].role))) == keccak256(abi.encodePacked((\"factory\"))));\n        require(testAuthority[testId] == msg.sender);\n        tests[testId].inTransit = true;\n    }\n\n    function hospitalObtain(uint testId, string calldata QR) external {\n        require(isHospital[msg.sender]);\n        require(keccak256(abi.encodePacked(QR)) == tests[testId].QR);\n        require(tests[testId].inTransit);\n        require(keccak256(abi.encodePacked((tests[testId].role))) == keccak256(abi.encodePacked((\"factory\"))));\n        tests[testId].inTransit = false;\n        tests[testId].role = \"hospital\";\n        testAuthority[testId] = msg.sender;\n        authorityTests[msg.sender]++;\n    }\n\n    function labTransfer(uint testId) external {\n        require(isHospital[msg.sender]);\n        require(!tests[testId].inTransit);\n        require(keccak256(abi.encodePacked((tests[testId].role))) == keccak256(abi.encodePacked((\"hospital\"))));\n        require(testAuthority[testId] == msg.sender);\n        tests[testId].inTransit = true;\n    }\n\n    function labObtain(uint testId, string calldata QR) external {\n        require(isLab[msg.sender]);\n        require(keccak256(abi.encodePacked(QR)) == tests[testId].QR);\n        require(tests[testId].inTransit);\n        require(keccak256(abi.encodePacked((tests[testId].role))) == keccak256(abi.encodePacked((\"hospital\"))));\n        tests[testId].inTransit = false;\n        tests[testId].role = \"lab\";\n        testAuthority[testId] = msg.sender;\n        authorityTests[msg.sender]++;\n    }\n\n    function updateTest(uint testId, bool result) external {\n        require(isLab[msg.sender]);\n        require(testAuthority[testId] == msg.sender);\n        tests[testId].result = result;\n    }\n\n    function checkTest(uint testId) external view returns(\n        address factory, address authority, string memory role, bool result, bool inTransit, uint date, bool certified\n    ) {\n        factory = tests[testId].factory;\n        authority = testAuthority[testId];\n        role = tests[testId].role;\n        result = tests[testId].result;\n        inTransit = tests[testId].inTransit;\n        date = tests[testId].date;\n        certified = factoryCertified[factory];\n    }\n\n    function totalSupply() public view returns (uint) {\n        return tests.length;\n    }\n\n    function getTests(address authority) external view returns (uint[] memory) {\n        uint testCount = authorityTests[authority];\n\n        if (testCount == 0) {\n            return new uint[](0);\n        } else {\n            uint[] memory result = new uint[](testCount);\n            uint totalTests = totalSupply();\n            uint resultIndex = 0;\n\n            for (uint testId = 0; testId < totalTests; testId++) {\n                if (testAuthority[testId] == authority) {\n                    result[resultIndex] = testId;\n                    resultIndex++;\n                }\n            }\n\n            return result;\n        }\n    }\n\n    function checkCertification(address entity) external view returns (bool) {\n        return factoryCertified[entity];\n    }\n }\n",
  "sourcePath": "/Users/jackieni/dev/hackathon/berify/berify-server/contracts/TestFactory.sol",
  "compiler": {
    "name": "solc",
    "version": "0.5.8+commit.23d335f2.Emscripten.clang"
  },
  "schemaVersion": "3.0.11",
  "updatedAt": "2020-03-29T22:19:18.262Z",
  "devdoc": {
    "methods": {}
  },
  "userdoc": {
    "methods": {}
  }
}